{
  "_format": "hh-sol-artifact-1",
  "contractName": "Becha",
  "sourceName": "contracts/becha.sol",
  "abi": [
    {
      "inputs": [],
      "stateMutability": "nonpayable",
      "type": "constructor"
    },
    {
      "inputs": [],
      "name": "ApprovalCallerNotOwnerNorApproved",
      "type": "error"
    },
    {
      "inputs": [],
      "name": "ApprovalQueryForNonexistentToken",
      "type": "error"
    },
    {
      "inputs": [],
      "name": "BalanceQueryForZeroAddress",
      "type": "error"
    },
    {
      "inputs": [],
      "name": "MintERC2309QuantityExceedsLimit",
      "type": "error"
    },
    {
      "inputs": [],
      "name": "MintToZeroAddress",
      "type": "error"
    },
    {
      "inputs": [],
      "name": "MintZeroQuantity",
      "type": "error"
    },
    {
      "inputs": [],
      "name": "OwnerQueryForNonexistentToken",
      "type": "error"
    },
    {
      "inputs": [],
      "name": "OwnershipNotInitializedForExtraData",
      "type": "error"
    },
    {
      "inputs": [],
      "name": "TransferCallerNotOwnerNorApproved",
      "type": "error"
    },
    {
      "inputs": [],
      "name": "TransferFromIncorrectOwner",
      "type": "error"
    },
    {
      "inputs": [],
      "name": "TransferToNonERC721ReceiverImplementer",
      "type": "error"
    },
    {
      "inputs": [],
      "name": "TransferToZeroAddress",
      "type": "error"
    },
    {
      "inputs": [],
      "name": "URIQueryForNonexistentToken",
      "type": "error"
    },
    {
      "anonymous": false,
      "inputs": [
        {
          "indexed": true,
          "internalType": "address",
          "name": "owner",
          "type": "address"
        },
        {
          "indexed": true,
          "internalType": "address",
          "name": "approved",
          "type": "address"
        },
        {
          "indexed": true,
          "internalType": "uint256",
          "name": "tokenId",
          "type": "uint256"
        }
      ],
      "name": "Approval",
      "type": "event"
    },
    {
      "anonymous": false,
      "inputs": [
        {
          "indexed": true,
          "internalType": "address",
          "name": "owner",
          "type": "address"
        },
        {
          "indexed": true,
          "internalType": "address",
          "name": "operator",
          "type": "address"
        },
        {
          "indexed": false,
          "internalType": "bool",
          "name": "approved",
          "type": "bool"
        }
      ],
      "name": "ApprovalForAll",
      "type": "event"
    },
    {
      "anonymous": false,
      "inputs": [
        {
          "indexed": true,
          "internalType": "uint256",
          "name": "fromTokenId",
          "type": "uint256"
        },
        {
          "indexed": false,
          "internalType": "uint256",
          "name": "toTokenId",
          "type": "uint256"
        },
        {
          "indexed": true,
          "internalType": "address",
          "name": "from",
          "type": "address"
        },
        {
          "indexed": true,
          "internalType": "address",
          "name": "to",
          "type": "address"
        }
      ],
      "name": "ConsecutiveTransfer",
      "type": "event"
    },
    {
      "anonymous": false,
      "inputs": [
        {
          "indexed": true,
          "internalType": "address",
          "name": "previousOwner",
          "type": "address"
        },
        {
          "indexed": true,
          "internalType": "address",
          "name": "newOwner",
          "type": "address"
        }
      ],
      "name": "OwnershipTransferred",
      "type": "event"
    },
    {
      "anonymous": false,
      "inputs": [
        {
          "indexed": true,
          "internalType": "address",
          "name": "from",
          "type": "address"
        },
        {
          "indexed": true,
          "internalType": "address",
          "name": "to",
          "type": "address"
        },
        {
          "indexed": true,
          "internalType": "uint256",
          "name": "tokenId",
          "type": "uint256"
        }
      ],
      "name": "Transfer",
      "type": "event"
    },
    {
      "inputs": [
        {
          "internalType": "address",
          "name": "",
          "type": "address"
        }
      ],
      "name": "Allowlist",
      "outputs": [
        {
          "internalType": "bool",
          "name": "",
          "type": "bool"
        }
      ],
      "stateMutability": "view",
      "type": "function"
    },
    {
      "inputs": [
        {
          "internalType": "address",
          "name": "",
          "type": "address"
        }
      ],
      "name": "Minted",
      "outputs": [
        {
          "internalType": "uint256",
          "name": "",
          "type": "uint256"
        }
      ],
      "stateMutability": "view",
      "type": "function"
    },
    {
      "inputs": [
        {
          "internalType": "address[]",
          "name": "_addresses",
          "type": "address[]"
        }
      ],
      "name": "addAllowlist",
      "outputs": [],
      "stateMutability": "nonpayable",
      "type": "function"
    },
    {
      "inputs": [],
      "name": "almintPrice",
      "outputs": [
        {
          "internalType": "uint256",
          "name": "",
          "type": "uint256"
        }
      ],
      "stateMutability": "view",
      "type": "function"
    },
    {
      "inputs": [
        {
          "internalType": "address",
          "name": "to",
          "type": "address"
        },
        {
          "internalType": "uint256",
          "name": "tokenId",
          "type": "uint256"
        }
      ],
      "name": "approve",
      "outputs": [],
      "stateMutability": "payable",
      "type": "function"
    },
    {
      "inputs": [
        {
          "internalType": "address",
          "name": "owner",
          "type": "address"
        }
      ],
      "name": "balanceOf",
      "outputs": [
        {
          "internalType": "uint256",
          "name": "",
          "type": "uint256"
        }
      ],
      "stateMutability": "view",
      "type": "function"
    },
    {
      "inputs": [],
      "name": "baseURI",
      "outputs": [
        {
          "internalType": "string",
          "name": "",
          "type": "string"
        }
      ],
      "stateMutability": "view",
      "type": "function"
    },
    {
      "inputs": [],
      "name": "batchSize",
      "outputs": [
        {
          "internalType": "uint256",
          "name": "",
          "type": "uint256"
        }
      ],
      "stateMutability": "view",
      "type": "function"
    },
    {
      "inputs": [
        {
          "internalType": "uint256",
          "name": "tokenId",
          "type": "uint256"
        }
      ],
      "name": "getApproved",
      "outputs": [
        {
          "internalType": "address",
          "name": "",
          "type": "address"
        }
      ],
      "stateMutability": "view",
      "type": "function"
    },
    {
      "inputs": [
        {
          "internalType": "address",
          "name": "owner",
          "type": "address"
        },
        {
          "internalType": "address",
          "name": "operator",
          "type": "address"
        }
      ],
      "name": "isApprovedForAll",
      "outputs": [
        {
          "internalType": "bool",
          "name": "",
          "type": "bool"
        }
      ],
      "stateMutability": "view",
      "type": "function"
    },
    {
      "inputs": [],
      "name": "maxPerWallet",
      "outputs": [
        {
          "internalType": "uint256",
          "name": "",
          "type": "uint256"
        }
      ],
      "stateMutability": "view",
      "type": "function"
    },
    {
      "inputs": [],
      "name": "mintPrice",
      "outputs": [
        {
          "internalType": "uint256",
          "name": "",
          "type": "uint256"
        }
      ],
      "stateMutability": "view",
      "type": "function"
    },
    {
      "inputs": [],
      "name": "name",
      "outputs": [
        {
          "internalType": "string",
          "name": "",
          "type": "string"
        }
      ],
      "stateMutability": "view",
      "type": "function"
    },
    {
      "inputs": [],
      "name": "owner",
      "outputs": [
        {
          "internalType": "address",
          "name": "",
          "type": "address"
        }
      ],
      "stateMutability": "view",
      "type": "function"
    },
    {
      "inputs": [
        {
          "internalType": "uint256",
          "name": "quantity",
          "type": "uint256"
        },
        {
          "internalType": "address",
          "name": "to",
          "type": "address"
        }
      ],
      "name": "ownerMint",
      "outputs": [],
      "stateMutability": "nonpayable",
      "type": "function"
    },
    {
      "inputs": [
        {
          "internalType": "uint256",
          "name": "tokenId",
          "type": "uint256"
        }
      ],
      "name": "ownerOf",
      "outputs": [
        {
          "internalType": "address",
          "name": "",
          "type": "address"
        }
      ],
      "stateMutability": "view",
      "type": "function"
    },
    {
      "inputs": [
        {
          "internalType": "uint256",
          "name": "quantity",
          "type": "uint256"
        }
      ],
      "name": "preMint",
      "outputs": [],
      "stateMutability": "payable",
      "type": "function"
    },
    {
      "inputs": [],
      "name": "presale",
      "outputs": [
        {
          "internalType": "bool",
          "name": "",
          "type": "bool"
        }
      ],
      "stateMutability": "view",
      "type": "function"
    },
    {
      "inputs": [
        {
          "internalType": "uint256",
          "name": "quantity",
          "type": "uint256"
        }
      ],
      "name": "publicMint",
      "outputs": [],
      "stateMutability": "payable",
      "type": "function"
    },
    {
      "inputs": [],
      "name": "publicsale",
      "outputs": [
        {
          "internalType": "bool",
          "name": "",
          "type": "bool"
        }
      ],
      "stateMutability": "view",
      "type": "function"
    },
    {
      "inputs": [],
      "name": "renounceOwnership",
      "outputs": [],
      "stateMutability": "nonpayable",
      "type": "function"
    },
    {
      "inputs": [],
      "name": "revealed",
      "outputs": [
        {
          "internalType": "bool",
          "name": "",
          "type": "bool"
        }
      ],
      "stateMutability": "view",
      "type": "function"
    },
    {
      "inputs": [
        {
          "internalType": "uint256",
          "name": "_tokenId",
          "type": "uint256"
        },
        {
          "internalType": "uint256",
          "name": "_salePrice",
          "type": "uint256"
        }
      ],
      "name": "royaltyInfo",
      "outputs": [
        {
          "internalType": "address",
          "name": "",
          "type": "address"
        },
        {
          "internalType": "uint256",
          "name": "",
          "type": "uint256"
        }
      ],
      "stateMutability": "view",
      "type": "function"
    },
    {
      "inputs": [
        {
          "internalType": "address",
          "name": "from",
          "type": "address"
        },
        {
          "internalType": "address",
          "name": "to",
          "type": "address"
        },
        {
          "internalType": "uint256",
          "name": "tokenId",
          "type": "uint256"
        }
      ],
      "name": "safeTransferFrom",
      "outputs": [],
      "stateMutability": "payable",
      "type": "function"
    },
    {
      "inputs": [
        {
          "internalType": "address",
          "name": "from",
          "type": "address"
        },
        {
          "internalType": "address",
          "name": "to",
          "type": "address"
        },
        {
          "internalType": "uint256",
          "name": "tokenId",
          "type": "uint256"
        },
        {
          "internalType": "bytes",
          "name": "_data",
          "type": "bytes"
        }
      ],
      "name": "safeTransferFrom",
      "outputs": [],
      "stateMutability": "payable",
      "type": "function"
    },
    {
      "inputs": [
        {
          "internalType": "address",
          "name": "operator",
          "type": "address"
        },
        {
          "internalType": "bool",
          "name": "approved",
          "type": "bool"
        }
      ],
      "name": "setApprovalForAll",
      "outputs": [],
      "stateMutability": "nonpayable",
      "type": "function"
    },
    {
      "inputs": [
        {
          "internalType": "string",
          "name": "_uri",
          "type": "string"
        }
      ],
      "name": "setHiddenBaseURI",
      "outputs": [],
      "stateMutability": "nonpayable",
      "type": "function"
    },
    {
      "inputs": [
        {
          "internalType": "uint256",
          "name": "_maxPerWallet",
          "type": "uint256"
        }
      ],
      "name": "setPreMax",
      "outputs": [],
      "stateMutability": "nonpayable",
      "type": "function"
    },
    {
      "inputs": [
        {
          "internalType": "bool",
          "name": "_state",
          "type": "bool"
        }
      ],
      "name": "setPresale",
      "outputs": [],
      "stateMutability": "nonpayable",
      "type": "function"
    },
    {
      "inputs": [
        {
          "internalType": "uint256",
          "name": "_newPrice",
          "type": "uint256"
        }
      ],
      "name": "setPrice",
      "outputs": [],
      "stateMutability": "nonpayable",
      "type": "function"
    },
    {
      "inputs": [
        {
          "internalType": "uint256",
          "name": "_newPrice",
          "type": "uint256"
        }
      ],
      "name": "setalPrice",
      "outputs": [],
      "stateMutability": "nonpayable",
      "type": "function"
    },
    {
      "inputs": [
        {
          "internalType": "bool",
          "name": "_bool",
          "type": "bool"
        }
      ],
      "name": "setreveal",
      "outputs": [],
      "stateMutability": "nonpayable",
      "type": "function"
    },
    {
      "inputs": [
        {
          "internalType": "bytes4",
          "name": "interfaceId",
          "type": "bytes4"
        }
      ],
      "name": "supportsInterface",
      "outputs": [
        {
          "internalType": "bool",
          "name": "",
          "type": "bool"
        }
      ],
      "stateMutability": "view",
      "type": "function"
    },
    {
      "inputs": [],
      "name": "symbol",
      "outputs": [
        {
          "internalType": "string",
          "name": "",
          "type": "string"
        }
      ],
      "stateMutability": "view",
      "type": "function"
    },
    {
      "inputs": [],
      "name": "tokenCount",
      "outputs": [
        {
          "internalType": "uint256",
          "name": "",
          "type": "uint256"
        }
      ],
      "stateMutability": "view",
      "type": "function"
    },
    {
      "inputs": [
        {
          "internalType": "uint256",
          "name": "tokenId",
          "type": "uint256"
        }
      ],
      "name": "tokenURI",
      "outputs": [
        {
          "internalType": "string",
          "name": "",
          "type": "string"
        }
      ],
      "stateMutability": "view",
      "type": "function"
    },
    {
      "inputs": [],
      "name": "totalSupply",
      "outputs": [
        {
          "internalType": "uint256",
          "name": "",
          "type": "uint256"
        }
      ],
      "stateMutability": "view",
      "type": "function"
    },
    {
      "inputs": [
        {
          "internalType": "address",
          "name": "from",
          "type": "address"
        },
        {
          "internalType": "address",
          "name": "to",
          "type": "address"
        },
        {
          "internalType": "uint256",
          "name": "tokenId",
          "type": "uint256"
        }
      ],
      "name": "transferFrom",
      "outputs": [],
      "stateMutability": "payable",
      "type": "function"
    },
    {
      "inputs": [
        {
          "internalType": "address",
          "name": "newOwner",
          "type": "address"
        }
      ],
      "name": "transferOwnership",
      "outputs": [],
      "stateMutability": "nonpayable",
      "type": "function"
    },
    {
      "inputs": [],
      "name": "withdraw",
      "outputs": [],
      "stateMutability": "nonpayable",
      "type": "function"
    }
  ],
  "bytecode": "0x608060405260405180602001604052806000815250600b9081620000249190620004cc565b50661c6bf526340000600c55662386f26fc10000600d556064600e556002600f5560646011556000601260006101000a81548160ff0219169083151502179055506000601260016101000a81548160ff0219169083151502179055506000601260026101000a81548160ff021916908315150217905550348015620000a857600080fd5b506040518060400160405280600581526020017f42656368610000000000000000000000000000000000000000000000000000008152506040518060400160405280600581526020017f42454348410000000000000000000000000000000000000000000000000000008152508160029081620001269190620004cc565b508060039081620001389190620004cc565b50620001496200017f60201b60201c565b600081905550505062000171620001656200018460201b60201c565b6200018c60201b60201c565b6000601081905550620005b3565b600090565b600033905090565b6000600a60009054906101000a900473ffffffffffffffffffffffffffffffffffffffff16905081600a60006101000a81548173ffffffffffffffffffffffffffffffffffffffff021916908373ffffffffffffffffffffffffffffffffffffffff1602179055508173ffffffffffffffffffffffffffffffffffffffff168173ffffffffffffffffffffffffffffffffffffffff167f8be0079c531659141344cd1fd0a4f28419497f9722a3daafe3b4186f6b6457e060405160405180910390a35050565b600081519050919050565b7f4e487b7100000000000000000000000000000000000000000000000000000000600052604160045260246000fd5b7f4e487b7100000000000000000000000000000000000000000000000000000000600052602260045260246000fd5b60006002820490506001821680620002d457607f821691505b602082108103620002ea57620002e96200028c565b5b50919050565b60008190508160005260206000209050919050565b60006020601f8301049050919050565b600082821b905092915050565b600060088302620003547fffffffffffffffffffffffffffffffffffffffffffffffffffffffffffffffff8262000315565b62000360868362000315565b95508019841693508086168417925050509392505050565b6000819050919050565b6000819050919050565b6000620003ad620003a7620003a18462000378565b62000382565b62000378565b9050919050565b6000819050919050565b620003c9836200038c565b620003e1620003d882620003b4565b84845462000322565b825550505050565b600090565b620003f8620003e9565b62000405818484620003be565b505050565b5b818110156200042d5762000421600082620003ee565b6001810190506200040b565b5050565b601f8211156200047c576200044681620002f0565b620004518462000305565b8101602085101562000461578190505b62000479620004708562000305565b8301826200040a565b50505b505050565b600082821c905092915050565b6000620004a16000198460080262000481565b1980831691505092915050565b6000620004bc83836200048e565b9150826002028217905092915050565b620004d78262000252565b67ffffffffffffffff811115620004f357620004f26200025d565b5b620004ff8254620002bb565b6200050c82828562000431565b600060209050601f8311600181146200054457600084156200052f578287015190505b6200053b8582620004ae565b865550620005ab565b601f1984166200055486620002f0565b60005b828110156200057e5784890151825560018201915060208501945060208101905062000557565b868310156200059e57848901516200059a601f8916826200048e565b8355505b6001600288020188555050505b505050505050565b61396180620005c36000396000f3fe60806040526004361061023a5760003560e01c80636817c76c1161012e578063a22cb465116100ab578063d52c57e01161006f578063d52c57e01461081f578063e985e9c514610848578063f2fde38b14610885578063f4daaba1146108ae578063fdea8e0b146108d95761023a565b8063a22cb46514610749578063b88d4fde14610772578063b94805a21461078e578063c54e73e3146107b9578063c87b56dd146107e25761023a565b80638da5cb5b116100f25780638da5cb5b1461066257806390ddedd51461068d57806391b7f5ed146106ca57806395d89b41146106f35780639f181b5e1461071e5761023a565b80636817c76c1461059c5780636c0360eb146105c757806370a08231146105f2578063715018a61461062f5780638ad433ac146106465761023a565b80632617dd4d116101bc57806342842e0e1161018057806342842e0e146104c4578063453c2310146104e05780634ff39e261461050b57806351830227146105345780636352211e1461055f5761023a565b80632617dd4d146104015780632a55205a1461042a5780632db11544146104685780632f5d8cad146104845780633ccfd60b146104ad5761023a565b806310d50c9f1161020357806310d50c9f1461032957806318160ddd1461036657806320ac685014610391578063225944cb146103ba57806323b872dd146103e55761023a565b80622c00fe1461023f57806301ffc9a71461026857806306fdde03146102a5578063081812fc146102d0578063095ea7b31461030d575b600080fd5b34801561024b57600080fd5b5061026660048036038101906102619190612636565b610904565b005b34801561027457600080fd5b5061028f600480360381019061028a91906126bb565b610916565b60405161029c9190612703565b60405180910390f35b3480156102b157600080fd5b506102ba610928565b6040516102c791906127ae565b60405180910390f35b3480156102dc57600080fd5b506102f760048036038101906102f29190612636565b6109ba565b6040516103049190612811565b60405180910390f35b61032760048036038101906103229190612858565b610a39565b005b34801561033557600080fd5b50610350600480360381019061034b9190612898565b610b7d565b60405161035d9190612703565b60405180910390f35b34801561037257600080fd5b5061037b610b9d565b60405161038891906128d4565b60405180910390f35b34801561039d57600080fd5b506103b860048036038101906103b39190612a24565b610bb4565b005b3480156103c657600080fd5b506103cf610bcf565b6040516103dc91906128d4565b60405180910390f35b6103ff60048036038101906103fa9190612a6d565b610bd5565b005b34801561040d57600080fd5b5061042860048036038101906104239190612b20565b610ef7565b005b34801561043657600080fd5b50610451600480360381019061044c9190612b6d565b610fa4565b60405161045f929190612bad565b60405180910390f35b610482600480360381019061047d9190612636565b61118e565b005b34801561049057600080fd5b506104ab60048036038101906104a69190612c02565b61137d565b005b3480156104b957600080fd5b506104c26113a2565b005b6104de60048036038101906104d99190612a6d565b611441565b005b3480156104ec57600080fd5b506104f5611461565b60405161050291906128d4565b60405180910390f35b34801561051757600080fd5b50610532600480360381019061052d9190612636565b611467565b005b34801561054057600080fd5b50610549611479565b6040516105569190612703565b60405180910390f35b34801561056b57600080fd5b5061058660048036038101906105819190612636565b61148c565b6040516105939190612811565b60405180910390f35b3480156105a857600080fd5b506105b161149e565b6040516105be91906128d4565b60405180910390f35b3480156105d357600080fd5b506105dc6114a4565b6040516105e991906127ae565b60405180910390f35b3480156105fe57600080fd5b5061061960048036038101906106149190612898565b611532565b60405161062691906128d4565b60405180910390f35b34801561063b57600080fd5b506106446115ea565b005b610660600480360381019061065b9190612636565b6115fe565b005b34801561066e57600080fd5b50610677611760565b6040516106849190612811565b60405180910390f35b34801561069957600080fd5b506106b460048036038101906106af9190612898565b61178a565b6040516106c191906128d4565b60405180910390f35b3480156106d657600080fd5b506106f160048036038101906106ec9190612636565b6117a2565b005b3480156106ff57600080fd5b506107086117b4565b60405161071591906127ae565b60405180910390f35b34801561072a57600080fd5b50610733611846565b60405161074091906128d4565b60405180910390f35b34801561075557600080fd5b50610770600480360381019061076b9190612c2f565b61184c565b005b61078c60048036038101906107879190612d10565b611957565b005b34801561079a57600080fd5b506107a36119ca565b6040516107b09190612703565b60405180910390f35b3480156107c557600080fd5b506107e060048036038101906107db9190612c02565b6119dd565b005b3480156107ee57600080fd5b5061080960048036038101906108049190612636565b611a02565b60405161081691906127ae565b60405180910390f35b34801561082b57600080fd5b5061084660048036038101906108419190612d93565b611aa9565b005b34801561085457600080fd5b5061086f600480360381019061086a9190612dd3565b611b2a565b60405161087c9190612703565b60405180910390f35b34801561089157600080fd5b506108ac60048036038101906108a79190612898565b611bbe565b005b3480156108ba57600080fd5b506108c3611c41565b6040516108d091906128d4565b60405180910390f35b3480156108e557600080fd5b506108ee611c47565b6040516108fb9190612703565b60405180910390f35b61090c611c5a565b80600c8190555050565b600061092182611cd8565b9050919050565b60606002805461093790612e42565b80601f016020809104026020016040519081016040528092919081815260200182805461096390612e42565b80156109b05780601f10610985576101008083540402835291602001916109b0565b820191906000526020600020905b81548152906001019060200180831161099357829003601f168201915b5050505050905090565b60006109c582611d52565b6109fb576040517fcf4700e400000000000000000000000000000000000000000000000000000000815260040160405180910390fd5b6006600083815260200190815260200160002060000160009054906101000a900473ffffffffffffffffffffffffffffffffffffffff169050919050565b6000610a448261148c565b90508073ffffffffffffffffffffffffffffffffffffffff16610a65611db1565b73ffffffffffffffffffffffffffffffffffffffff1614610ac857610a9181610a8c611db1565b611b2a565b610ac7576040517fcfb3b94200000000000000000000000000000000000000000000000000000000815260040160405180910390fd5b5b826006600084815260200190815260200160002060000160006101000a81548173ffffffffffffffffffffffffffffffffffffffff021916908373ffffffffffffffffffffffffffffffffffffffff160217905550818373ffffffffffffffffffffffffffffffffffffffff168273ffffffffffffffffffffffffffffffffffffffff167f8c5be1e5ebec7d5bd14f71427d1e84f3dd0314c0f7b2291e5b200ac8c7c3b92560405160405180910390a4505050565b60146020528060005260406000206000915054906101000a900460ff1681565b6000610ba7611db9565b6001546000540303905090565b610bbc611c5a565b8060139081610bcb919061301f565b5050565b600c5481565b6000610be082611dbe565b90508373ffffffffffffffffffffffffffffffffffffffff168173ffffffffffffffffffffffffffffffffffffffff1614610c47576040517fa114810000000000000000000000000000000000000000000000000000000000815260040160405180910390fd5b600080610c5384611e8a565b91509150610c698187610c64611db1565b611eb1565b610cb557610c7e86610c79611db1565b611b2a565b610cb4576040517f59c896be00000000000000000000000000000000000000000000000000000000815260040160405180910390fd5b5b600073ffffffffffffffffffffffffffffffffffffffff168573ffffffffffffffffffffffffffffffffffffffff1603610d1b576040517fea553b3400000000000000000000000000000000000000000000000000000000815260040160405180910390fd5b610d288686866001611ef5565b8015610d3357600082555b600560008773ffffffffffffffffffffffffffffffffffffffff1673ffffffffffffffffffffffffffffffffffffffff168152602001908152602001600020600081546001900391905081905550600560008673ffffffffffffffffffffffffffffffffffffffff1673ffffffffffffffffffffffffffffffffffffffff1681526020019081526020016000206000815460010191905081905550610e0185610ddd888887611efb565b7c020000000000000000000000000000000000000000000000000000000017611f23565b600460008681526020019081526020016000208190555060007c0200000000000000000000000000000000000000000000000000000000841603610e875760006001850190506000600460008381526020019081526020016000205403610e85576000548114610e84578360046000838152602001908152602001600020819055505b5b505b838573ffffffffffffffffffffffffffffffffffffffff168773ffffffffffffffffffffffffffffffffffffffff167fddf252ad1be2c89b69c2b068fc378daa952ba7f163c4a11628f55a4df523b3ef60405160405180910390a4610eef8686866001611f4e565b505050505050565b610eff611c5a565b60005b82829050811015610f9f57600160146000858585818110610f2657610f256130f1565b5b9050602002016020810190610f3b9190612898565b73ffffffffffffffffffffffffffffffffffffffff1673ffffffffffffffffffffffffffffffffffffffff16815260200190815260200160002060006101000a81548160ff0219169083151502179055508080610f979061314f565b915050610f02565b505050565b6000806000600960008681526020019081526020016000206040518060400160405290816000820160009054906101000a900473ffffffffffffffffffffffffffffffffffffffff1673ffffffffffffffffffffffffffffffffffffffff1673ffffffffffffffffffffffffffffffffffffffff1681526020016000820160149054906101000a90046bffffffffffffffffffffffff166bffffffffffffffffffffffff166bffffffffffffffffffffffff16815250509050600073ffffffffffffffffffffffffffffffffffffffff16816000015173ffffffffffffffffffffffffffffffffffffffff16036111395760086040518060400160405290816000820160009054906101000a900473ffffffffffffffffffffffffffffffffffffffff1673ffffffffffffffffffffffffffffffffffffffff1673ffffffffffffffffffffffffffffffffffffffff1681526020016000820160149054906101000a90046bffffffffffffffffffffffff166bffffffffffffffffffffffff166bffffffffffffffffffffffff168152505090505b6000611143611f54565b6bffffffffffffffffffffffff1682602001516bffffffffffffffffffffffff168661116f9190613197565b6111799190613208565b90508160000151819350935050509250929050565b601260019054906101000a900460ff16156111de576040517f08c379a00000000000000000000000000000000000000000000000000000000081526004016111d590613285565b60405180910390fd5b601154601054826111ef91906132a5565b1115611230576040517f08c379a000000000000000000000000000000000000000000000000000000000815260040161122790613325565b60405180910390fd5b80600f541015611275576040517f08c379a000000000000000000000000000000000000000000000000000000000815260040161126c90613391565b60405180910390fd5b601460003373ffffffffffffffffffffffffffffffffffffffff1673ffffffffffffffffffffffffffffffffffffffff16815260200190815260200160002060009054906101000a900460ff16611301576040517f08c379a00000000000000000000000000000000000000000000000000000000081526004016112f8906133fd565b60405180910390fd5b80601560003373ffffffffffffffffffffffffffffffffffffffff1673ffffffffffffffffffffffffffffffffffffffff168152602001908152602001600020600082825461135091906132a5565b925050819055506113613382611f5e565b806010600082825461137391906132a5565b9250508190555050565b611385611c5a565b80601260006101000a81548160ff02191690831515021790555050565b6113aa611c5a565b600047116113ed576040517f08c379a00000000000000000000000000000000000000000000000000000000081526004016113e490613469565b60405180910390fd5b7371787469879aa8c5fe80ee3b6aae844d647daaa073ffffffffffffffffffffffffffffffffffffffff166108fc479081150290604051600060405180830381858888f1935050505061143f57600080fd5b565b61145c83838360405180602001604052806000815250611957565b505050565b600f5481565b61146f611c5a565b80600f8190555050565b601260009054906101000a900460ff1681565b600061149782611dbe565b9050919050565b600d5481565b600b80546114b190612e42565b80601f01602080910402602001604051908101604052809291908181526020018280546114dd90612e42565b801561152a5780601f106114ff5761010080835404028352916020019161152a565b820191906000526020600020905b81548152906001019060200180831161150d57829003601f168201915b505050505081565b60008073ffffffffffffffffffffffffffffffffffffffff168273ffffffffffffffffffffffffffffffffffffffff1603611599576040517f8f4eb60400000000000000000000000000000000000000000000000000000000815260040160405180910390fd5b67ffffffffffffffff600560008473ffffffffffffffffffffffffffffffffffffffff1673ffffffffffffffffffffffffffffffffffffffff16815260200190815260200160002054169050919050565b6115f2611c5a565b6115fc6000611f7c565b565b601260019054906101000a900460ff1661164d576040517f08c379a0000000000000000000000000000000000000000000000000000000008152600401611644906134d5565b60405180910390fd5b6011546010548261165e91906132a5565b111561169f576040517f08c379a000000000000000000000000000000000000000000000000000000000815260040161169690613325565b60405180910390fd5b80600f5410156116e4576040517f08c379a00000000000000000000000000000000000000000000000000000000081526004016116db90613541565b60405180910390fd5b80601560003373ffffffffffffffffffffffffffffffffffffffff1673ffffffffffffffffffffffffffffffffffffffff168152602001908152602001600020600082825461173391906132a5565b925050819055506117443382611f5e565b806010600082825461175691906132a5565b9250508190555050565b6000600a60009054906101000a900473ffffffffffffffffffffffffffffffffffffffff16905090565b60156020528060005260406000206000915090505481565b6117aa611c5a565b80600d8190555050565b6060600380546117c390612e42565b80601f01602080910402602001604051908101604052809291908181526020018280546117ef90612e42565b801561183c5780601f106118115761010080835404028352916020019161183c565b820191906000526020600020905b81548152906001019060200180831161181f57829003601f168201915b5050505050905090565b60105481565b8060076000611859611db1565b73ffffffffffffffffffffffffffffffffffffffff1673ffffffffffffffffffffffffffffffffffffffff16815260200190815260200160002060008473ffffffffffffffffffffffffffffffffffffffff1673ffffffffffffffffffffffffffffffffffffffff16815260200190815260200160002060006101000a81548160ff0219169083151502179055508173ffffffffffffffffffffffffffffffffffffffff16611906611db1565b73ffffffffffffffffffffffffffffffffffffffff167f17307eab39ab6107e8899845ad3d59bd9653f200f220920489ca2b5937696c318360405161194b9190612703565b60405180910390a35050565b611962848484610bd5565b60008373ffffffffffffffffffffffffffffffffffffffff163b146119c45761198d84848484612042565b6119c3576040517fd1a57ed600000000000000000000000000000000000000000000000000000000815260040160405180910390fd5b5b50505050565b601260029054906101000a900460ff1681565b6119e5611c5a565b80601260016101000a81548160ff02191690831515021790555050565b6060611a0d82611d52565b611a4c576040517f08c379a0000000000000000000000000000000000000000000000000000000008152600401611a43906135d3565b60405180910390fd5b6000611a56612192565b90506000815111611a765760405180602001604052806000815250611aa1565b80611a80846121a9565b604051602001611a9192919061362f565b6040516020818303038152906040525b915050919050565b611ab1611c5a565b60115460105483611ac291906132a5565b1115611b03576040517f08c379a0000000000000000000000000000000000000000000000000000000008152600401611afa906136c5565b60405180910390fd5b611b0d8183611f5e565b8160106000828254611b1f91906132a5565b925050819055505050565b6000600760008473ffffffffffffffffffffffffffffffffffffffff1673ffffffffffffffffffffffffffffffffffffffff16815260200190815260200160002060008373ffffffffffffffffffffffffffffffffffffffff1673ffffffffffffffffffffffffffffffffffffffff16815260200190815260200160002060009054906101000a900460ff16905092915050565b611bc6611c5a565b600073ffffffffffffffffffffffffffffffffffffffff168173ffffffffffffffffffffffffffffffffffffffff1603611c35576040517f08c379a0000000000000000000000000000000000000000000000000000000008152600401611c2c90613757565b60405180910390fd5b611c3e81611f7c565b50565b600e5481565b601260019054906101000a900460ff1681565b611c62612309565b73ffffffffffffffffffffffffffffffffffffffff16611c80611760565b73ffffffffffffffffffffffffffffffffffffffff1614611cd6576040517f08c379a0000000000000000000000000000000000000000000000000000000008152600401611ccd906137c3565b60405180910390fd5b565b60007f2a55205a000000000000000000000000000000000000000000000000000000007bffffffffffffffffffffffffffffffffffffffffffffffffffffffff1916827bffffffffffffffffffffffffffffffffffffffffffffffffffffffff19161480611d4b5750611d4a82612311565b5b9050919050565b600081611d5d611db9565b11158015611d6c575060005482105b8015611daa575060007c0100000000000000000000000000000000000000000000000000000000600460008581526020019081526020016000205416145b9050919050565b600033905090565b600090565b60008082905080611dcd611db9565b11611e5357600054811015611e525760006004600083815260200190815260200160002054905060007c0100000000000000000000000000000000000000000000000000000000821603611e50575b60008103611e46576004600083600190039350838152602001908152602001600020549050611e1c565b8092505050611e85565b505b5b6040517fdf2d9b4200000000000000000000000000000000000000000000000000000000815260040160405180910390fd5b919050565b60008060006006600085815260200190815260200160002090508092508254915050915091565b600073ffffffffffffffffffffffffffffffffffffffff8316925073ffffffffffffffffffffffffffffffffffffffff821691508382148383141790509392505050565b50505050565b60008060e883901c905060e8611f1286868461237b565b62ffffff16901b9150509392505050565b600073ffffffffffffffffffffffffffffffffffffffff83169250814260a01b178317905092915050565b50505050565b6000612710905090565b611f78828260405180602001604052806000815250612384565b5050565b6000600a60009054906101000a900473ffffffffffffffffffffffffffffffffffffffff16905081600a60006101000a81548173ffffffffffffffffffffffffffffffffffffffff021916908373ffffffffffffffffffffffffffffffffffffffff1602179055508173ffffffffffffffffffffffffffffffffffffffff168173ffffffffffffffffffffffffffffffffffffffff167f8be0079c531659141344cd1fd0a4f28419497f9722a3daafe3b4186f6b6457e060405160405180910390a35050565b60008373ffffffffffffffffffffffffffffffffffffffff1663150b7a02612068611db1565b8786866040518563ffffffff1660e01b815260040161208a9493929190613838565b6020604051808303816000875af19250505080156120c657506040513d601f19601f820116820180604052508101906120c39190613899565b60015b61213f573d80600081146120f6576040519150601f19603f3d011682016040523d82523d6000602084013e6120fb565b606091505b506000815103612137576040517fd1a57ed600000000000000000000000000000000000000000000000000000000815260040160405180910390fd5b805181602001fd5b63150b7a0260e01b7bffffffffffffffffffffffffffffffffffffffffffffffffffffffff1916817bffffffffffffffffffffffffffffffffffffffffffffffffffffffff191614915050949350505050565b606060405180602001604052806000815250905090565b6060600082036121f0576040518060400160405280600181526020017f30000000000000000000000000000000000000000000000000000000000000008152509050612304565b600082905060005b6000821461222257808061220b9061314f565b915050600a8261221b9190613208565b91506121f8565b60008167ffffffffffffffff81111561223e5761223d6128f9565b5b6040519080825280601f01601f1916602001820160405280156122705781602001600182028036833780820191505090505b5090505b600085146122fd5760018261228991906138c6565b9150600a8561229891906138fa565b60306122a491906132a5565b60f81b8183815181106122ba576122b96130f1565b5b60200101907effffffffffffffffffffffffffffffffffffffffffffffffffffffffffffff1916908160001a905350600a856122f69190613208565b9450612274565b8093505050505b919050565b600033905090565b60007f01ffc9a7000000000000000000000000000000000000000000000000000000007bffffffffffffffffffffffffffffffffffffffffffffffffffffffff1916827bffffffffffffffffffffffffffffffffffffffffffffffffffffffff1916149050919050565b60009392505050565b61238e8383612421565b60008373ffffffffffffffffffffffffffffffffffffffff163b1461241c57600080549050600083820390505b6123ce6000868380600101945086612042565b612404576040517fd1a57ed600000000000000000000000000000000000000000000000000000000815260040160405180910390fd5b8181106123bb57816000541461241957600080fd5b50505b505050565b60008054905060008203612461576040517fb562e8dd00000000000000000000000000000000000000000000000000000000815260040160405180910390fd5b61246e6000848385611ef5565b600160406001901b178202600560008573ffffffffffffffffffffffffffffffffffffffff1673ffffffffffffffffffffffffffffffffffffffff168152602001908152602001600020600082825401925050819055506124e5836124d66000866000611efb565b6124df856125dc565b17611f23565b6004600083815260200190815260200160002081905550600080838301905073ffffffffffffffffffffffffffffffffffffffff85169150828260007fddf252ad1be2c89b69c2b068fc378daa952ba7f163c4a11628f55a4df523b3ef600080a4600183015b81811461258657808360007fddf252ad1be2c89b69c2b068fc378daa952ba7f163c4a11628f55a4df523b3ef600080a460018101905061254b565b50600082036125c1576040517f2e07630000000000000000000000000000000000000000000000000000000000815260040160405180910390fd5b8060008190555050506125d76000848385611f4e565b505050565b60006001821460e11b9050919050565b6000604051905090565b600080fd5b600080fd5b6000819050919050565b61261381612600565b811461261e57600080fd5b50565b6000813590506126308161260a565b92915050565b60006020828403121561264c5761264b6125f6565b5b600061265a84828501612621565b91505092915050565b60007fffffffff0000000000000000000000000000000000000000000000000000000082169050919050565b61269881612663565b81146126a357600080fd5b50565b6000813590506126b58161268f565b92915050565b6000602082840312156126d1576126d06125f6565b5b60006126df848285016126a6565b91505092915050565b60008115159050919050565b6126fd816126e8565b82525050565b600060208201905061271860008301846126f4565b92915050565b600081519050919050565b600082825260208201905092915050565b60005b8381101561275857808201518184015260208101905061273d565b60008484015250505050565b6000601f19601f8301169050919050565b60006127808261271e565b61278a8185612729565b935061279a81856020860161273a565b6127a381612764565b840191505092915050565b600060208201905081810360008301526127c88184612775565b905092915050565b600073ffffffffffffffffffffffffffffffffffffffff82169050919050565b60006127fb826127d0565b9050919050565b61280b816127f0565b82525050565b60006020820190506128266000830184612802565b92915050565b612835816127f0565b811461284057600080fd5b50565b6000813590506128528161282c565b92915050565b6000806040838503121561286f5761286e6125f6565b5b600061287d85828601612843565b925050602061288e85828601612621565b9150509250929050565b6000602082840312156128ae576128ad6125f6565b5b60006128bc84828501612843565b91505092915050565b6128ce81612600565b82525050565b60006020820190506128e960008301846128c5565b92915050565b600080fd5b600080fd5b7f4e487b7100000000000000000000000000000000000000000000000000000000600052604160045260246000fd5b61293182612764565b810181811067ffffffffffffffff821117156129505761294f6128f9565b5b80604052505050565b60006129636125ec565b905061296f8282612928565b919050565b600067ffffffffffffffff82111561298f5761298e6128f9565b5b61299882612764565b9050602081019050919050565b82818337600083830152505050565b60006129c76129c284612974565b612959565b9050828152602081018484840111156129e3576129e26128f4565b5b6129ee8482856129a5565b509392505050565b600082601f830112612a0b57612a0a6128ef565b5b8135612a1b8482602086016129b4565b91505092915050565b600060208284031215612a3a57612a396125f6565b5b600082013567ffffffffffffffff811115612a5857612a576125fb565b5b612a64848285016129f6565b91505092915050565b600080600060608486031215612a8657612a856125f6565b5b6000612a9486828701612843565b9350506020612aa586828701612843565b9250506040612ab686828701612621565b9150509250925092565b600080fd5b600080fd5b60008083601f840112612ae057612adf6128ef565b5b8235905067ffffffffffffffff811115612afd57612afc612ac0565b5b602083019150836020820283011115612b1957612b18612ac5565b5b9250929050565b60008060208385031215612b3757612b366125f6565b5b600083013567ffffffffffffffff811115612b5557612b546125fb565b5b612b6185828601612aca565b92509250509250929050565b60008060408385031215612b8457612b836125f6565b5b6000612b9285828601612621565b9250506020612ba385828601612621565b9150509250929050565b6000604082019050612bc26000830185612802565b612bcf60208301846128c5565b9392505050565b612bdf816126e8565b8114612bea57600080fd5b50565b600081359050612bfc81612bd6565b92915050565b600060208284031215612c1857612c176125f6565b5b6000612c2684828501612bed565b91505092915050565b60008060408385031215612c4657612c456125f6565b5b6000612c5485828601612843565b9250506020612c6585828601612bed565b9150509250929050565b600067ffffffffffffffff821115612c8a57612c896128f9565b5b612c9382612764565b9050602081019050919050565b6000612cb3612cae84612c6f565b612959565b905082815260208101848484011115612ccf57612cce6128f4565b5b612cda8482856129a5565b509392505050565b600082601f830112612cf757612cf66128ef565b5b8135612d07848260208601612ca0565b91505092915050565b60008060008060808587031215612d2a57612d296125f6565b5b6000612d3887828801612843565b9450506020612d4987828801612843565b9350506040612d5a87828801612621565b925050606085013567ffffffffffffffff811115612d7b57612d7a6125fb565b5b612d8787828801612ce2565b91505092959194509250565b60008060408385031215612daa57612da96125f6565b5b6000612db885828601612621565b9250506020612dc985828601612843565b9150509250929050565b60008060408385031215612dea57612de96125f6565b5b6000612df885828601612843565b9250506020612e0985828601612843565b9150509250929050565b7f4e487b7100000000000000000000000000000000000000000000000000000000600052602260045260246000fd5b60006002820490506001821680612e5a57607f821691505b602082108103612e6d57612e6c612e13565b5b50919050565b60008190508160005260206000209050919050565b60006020601f8301049050919050565b600082821b905092915050565b600060088302612ed57fffffffffffffffffffffffffffffffffffffffffffffffffffffffffffffffff82612e98565b612edf8683612e98565b95508019841693508086168417925050509392505050565b6000819050919050565b6000612f1c612f17612f1284612600565b612ef7565b612600565b9050919050565b6000819050919050565b612f3683612f01565b612f4a612f4282612f23565b848454612ea5565b825550505050565b600090565b612f5f612f52565b612f6a818484612f2d565b505050565b5b81811015612f8e57612f83600082612f57565b600181019050612f70565b5050565b601f821115612fd357612fa481612e73565b612fad84612e88565b81016020851015612fbc578190505b612fd0612fc885612e88565b830182612f6f565b50505b505050565b600082821c905092915050565b6000612ff660001984600802612fd8565b1980831691505092915050565b600061300f8383612fe5565b9150826002028217905092915050565b6130288261271e565b67ffffffffffffffff811115613041576130406128f9565b5b61304b8254612e42565b613056828285612f92565b600060209050601f8311600181146130895760008415613077578287015190505b6130818582613003565b8655506130e9565b601f19841661309786612e73565b60005b828110156130bf5784890151825560018201915060208501945060208101905061309a565b868310156130dc57848901516130d8601f891682612fe5565b8355505b6001600288020188555050505b505050505050565b7f4e487b7100000000000000000000000000000000000000000000000000000000600052603260045260246000fd5b7f4e487b7100000000000000000000000000000000000000000000000000000000600052601160045260246000fd5b600061315a82612600565b91507fffffffffffffffffffffffffffffffffffffffffffffffffffffffffffffffff820361318c5761318b613120565b5b600182019050919050565b60006131a282612600565b91506131ad83612600565b92508282026131bb81612600565b915082820484148315176131d2576131d1613120565b5b5092915050565b7f4e487b7100000000000000000000000000000000000000000000000000000000600052601260045260246000fd5b600061321382612600565b915061321e83612600565b92508261322e5761322d6131d9565b5b828204905092915050565b7f5075626c6963206d696e74206973206e6f74207965742e000000000000000000600082015250565b600061326f601783612729565b915061327a82613239565b602082019050919050565b6000602082019050818103600083015261329e81613262565b9050919050565b60006132b082612600565b91506132bb83612600565b92508282019050808211156132d3576132d2613120565b5b92915050565b7f536f6c64206f7574000000000000000000000000000000000000000000000000600082015250565b600061330f600883612729565b915061331a826132d9565b602082019050919050565b6000602082019050818103600083015261333e81613302565b9050919050565b7f7075626c69634d696e743a2032206d6178207065722074780000000000000000600082015250565b600061337b601883612729565b915061338682613345565b602082019050919050565b600060208201905081810360008301526133aa8161336e565b9050919050565b7f4e6f20416c6c6f776c6973740000000000000000000000000000000000000000600082015250565b60006133e7600c83612729565b91506133f2826133b1565b602082019050919050565b60006020820190508181036000830152613416816133da565b9050919050565b7f4e6f20626172616e636500000000000000000000000000000000000000000000600082015250565b6000613453600a83612729565b915061345e8261341d565b602082019050919050565b6000602082019050818103600083015261348281613446565b9050919050565b7f50726573616c65206973206e6f74206163746976652e00000000000000000000600082015250565b60006134bf601683612729565b91506134ca82613489565b602082019050919050565b600060208201905081810360008301526134ee816134b2565b9050919050565b7f416c6c6f776c6973744d696e743a2032206d6178207065722074780000000000600082015250565b600061352b601b83612729565b9150613536826134f5565b602082019050919050565b6000602082019050818103600083015261355a8161351e565b9050919050565b7f4552433732314d657461646174613a2055524920717565727920666f72206e6f60008201527f6e6578697374656e7420746f6b656e0000000000000000000000000000000000602082015250565b60006135bd602f83612729565b91506135c882613561565b604082019050919050565b600060208201905081810360008301526135ec816135b0565b9050919050565b600081905092915050565b60006136098261271e565b61361381856135f3565b935061362381856020860161273a565b80840191505092915050565b600061363b82856135fe565b915061364782846135fe565b91508190509392505050565b7f746f6f206d616e7920616c7265616479206d696e746564206265666f7265207060008201527f61746e6572206d696e7400000000000000000000000000000000000000000000602082015250565b60006136af602a83612729565b91506136ba82613653565b604082019050919050565b600060208201905081810360008301526136de816136a2565b9050919050565b7f4f776e61626c653a206e6577206f776e657220697320746865207a65726f206160008201527f6464726573730000000000000000000000000000000000000000000000000000602082015250565b6000613741602683612729565b915061374c826136e5565b604082019050919050565b6000602082019050818103600083015261377081613734565b9050919050565b7f4f776e61626c653a2063616c6c6572206973206e6f7420746865206f776e6572600082015250565b60006137ad602083612729565b91506137b882613777565b602082019050919050565b600060208201905081810360008301526137dc816137a0565b9050919050565b600081519050919050565b600082825260208201905092915050565b600061380a826137e3565b61381481856137ee565b935061382481856020860161273a565b61382d81612764565b840191505092915050565b600060808201905061384d6000830187612802565b61385a6020830186612802565b61386760408301856128c5565b818103606083015261387981846137ff565b905095945050505050565b6000815190506138938161268f565b92915050565b6000602082840312156138af576138ae6125f6565b5b60006138bd84828501613884565b91505092915050565b60006138d182612600565b91506138dc83612600565b92508282039050818111156138f4576138f3613120565b5b92915050565b600061390582612600565b915061391083612600565b9250826139205761391f6131d9565b5b82820690509291505056fea2646970667358221220819499991e265b26857948dc15447c0e8fd06d4f578d65d3ad09ed4076c282c564736f6c63430008110033",
  "linkReferences": {},
  "deployedLinkReferences": {}
}